{
  "_format": "hh-sol-artifact-1",
  "contractName": "PestoPenguins",
  "sourceName": "contracts/PestoPenguins.sol",
  "abi": [
    {
      "inputs": [
        {
          "internalType": "string",
          "name": "initialBaseURI",
          "type": "string"
        }
      ],
      "stateMutability": "nonpayable",
      "type": "constructor"
    },
    {
      "inputs": [],
      "name": "ERC721EnumerableForbiddenBatchMint",
      "type": "error"
    },
    {
      "inputs": [
        {
          "internalType": "address",
          "name": "sender",
          "type": "address"
        },
        {
          "internalType": "uint256",
          "name": "tokenId",
          "type": "uint256"
        },
        {
          "internalType": "address",
          "name": "owner",
          "type": "address"
        }
      ],
      "name": "ERC721IncorrectOwner",
      "type": "error"
    },
    {
      "inputs": [
        {
          "internalType": "address",
          "name": "operator",
          "type": "address"
        },
        {
          "internalType": "uint256",
          "name": "tokenId",
          "type": "uint256"
        }
      ],
      "name": "ERC721InsufficientApproval",
      "type": "error"
    },
    {
      "inputs": [
        {
          "internalType": "address",
          "name": "approver",
          "type": "address"
        }
      ],
      "name": "ERC721InvalidApprover",
      "type": "error"
    },
    {
      "inputs": [
        {
          "internalType": "address",
          "name": "operator",
          "type": "address"
        }
      ],
      "name": "ERC721InvalidOperator",
      "type": "error"
    },
    {
      "inputs": [
        {
          "internalType": "address",
          "name": "owner",
          "type": "address"
        }
      ],
      "name": "ERC721InvalidOwner",
      "type": "error"
    },
    {
      "inputs": [
        {
          "internalType": "address",
          "name": "receiver",
          "type": "address"
        }
      ],
      "name": "ERC721InvalidReceiver",
      "type": "error"
    },
    {
      "inputs": [
        {
          "internalType": "address",
          "name": "sender",
          "type": "address"
        }
      ],
      "name": "ERC721InvalidSender",
      "type": "error"
    },
    {
      "inputs": [
        {
          "internalType": "uint256",
          "name": "tokenId",
          "type": "uint256"
        }
      ],
      "name": "ERC721NonexistentToken",
      "type": "error"
    },
    {
      "inputs": [
        {
          "internalType": "address",
          "name": "owner",
          "type": "address"
        },
        {
          "internalType": "uint256",
          "name": "index",
          "type": "uint256"
        }
      ],
      "name": "ERC721OutOfBoundsIndex",
      "type": "error"
    },
    {
      "inputs": [
        {
          "internalType": "address",
          "name": "owner",
          "type": "address"
        }
      ],
      "name": "OwnableInvalidOwner",
      "type": "error"
    },
    {
      "inputs": [
        {
          "internalType": "address",
          "name": "account",
          "type": "address"
        }
      ],
      "name": "OwnableUnauthorizedAccount",
      "type": "error"
    },
    {
      "anonymous": false,
      "inputs": [
        {
          "indexed": true,
          "internalType": "address",
          "name": "owner",
          "type": "address"
        },
        {
          "indexed": true,
          "internalType": "address",
          "name": "approved",
          "type": "address"
        },
        {
          "indexed": true,
          "internalType": "uint256",
          "name": "tokenId",
          "type": "uint256"
        }
      ],
      "name": "Approval",
      "type": "event"
    },
    {
      "anonymous": false,
      "inputs": [
        {
          "indexed": true,
          "internalType": "address",
          "name": "owner",
          "type": "address"
        },
        {
          "indexed": true,
          "internalType": "address",
          "name": "operator",
          "type": "address"
        },
        {
          "indexed": false,
          "internalType": "bool",
          "name": "approved",
          "type": "bool"
        }
      ],
      "name": "ApprovalForAll",
      "type": "event"
    },
    {
      "anonymous": false,
      "inputs": [
        {
          "indexed": true,
          "internalType": "address",
          "name": "previousOwner",
          "type": "address"
        },
        {
          "indexed": true,
          "internalType": "address",
          "name": "newOwner",
          "type": "address"
        }
      ],
      "name": "OwnershipTransferred",
      "type": "event"
    },
    {
      "anonymous": false,
      "inputs": [
        {
          "indexed": true,
          "internalType": "address",
          "name": "from",
          "type": "address"
        },
        {
          "indexed": true,
          "internalType": "address",
          "name": "to",
          "type": "address"
        },
        {
          "indexed": true,
          "internalType": "uint256",
          "name": "tokenId",
          "type": "uint256"
        }
      ],
      "name": "Transfer",
      "type": "event"
    },
    {
      "inputs": [],
      "name": "MAX_SUPPLY",
      "outputs": [
        {
          "internalType": "uint256",
          "name": "",
          "type": "uint256"
        }
      ],
      "stateMutability": "view",
      "type": "function"
    },
    {
      "inputs": [],
      "name": "MINT_PRICE",
      "outputs": [
        {
          "internalType": "uint256",
          "name": "",
          "type": "uint256"
        }
      ],
      "stateMutability": "view",
      "type": "function"
    },
    {
      "inputs": [
        {
          "internalType": "address",
          "name": "to",
          "type": "address"
        },
        {
          "internalType": "uint256",
          "name": "tokenId",
          "type": "uint256"
        }
      ],
      "name": "approve",
      "outputs": [],
      "stateMutability": "nonpayable",
      "type": "function"
    },
    {
      "inputs": [
        {
          "internalType": "address",
          "name": "owner",
          "type": "address"
        }
      ],
      "name": "balanceOf",
      "outputs": [
        {
          "internalType": "uint256",
          "name": "",
          "type": "uint256"
        }
      ],
      "stateMutability": "view",
      "type": "function"
    },
    {
      "inputs": [
        {
          "internalType": "uint256",
          "name": "tokenId",
          "type": "uint256"
        }
      ],
      "name": "getApproved",
      "outputs": [
        {
          "internalType": "address",
          "name": "",
          "type": "address"
        }
      ],
      "stateMutability": "view",
      "type": "function"
    },
    {
      "inputs": [
        {
          "internalType": "address",
          "name": "owner",
          "type": "address"
        },
        {
          "internalType": "address",
          "name": "operator",
          "type": "address"
        }
      ],
      "name": "isApprovedForAll",
      "outputs": [
        {
          "internalType": "bool",
          "name": "",
          "type": "bool"
        }
      ],
      "stateMutability": "view",
      "type": "function"
    },
    {
      "inputs": [
        {
          "internalType": "uint256",
          "name": "amount",
          "type": "uint256"
        }
      ],
      "name": "mintNFT",
      "outputs": [],
      "stateMutability": "payable",
      "type": "function"
    },
    {
      "inputs": [],
      "name": "name",
      "outputs": [
        {
          "internalType": "string",
          "name": "",
          "type": "string"
        }
      ],
      "stateMutability": "view",
      "type": "function"
    },
    {
      "inputs": [],
      "name": "owner",
      "outputs": [
        {
          "internalType": "address",
          "name": "",
          "type": "address"
        }
      ],
      "stateMutability": "view",
      "type": "function"
    },
    {
      "inputs": [
        {
          "internalType": "uint256",
          "name": "tokenId",
          "type": "uint256"
        }
      ],
      "name": "ownerOf",
      "outputs": [
        {
          "internalType": "address",
          "name": "",
          "type": "address"
        }
      ],
      "stateMutability": "view",
      "type": "function"
    },
    {
      "inputs": [],
      "name": "renounceOwnership",
      "outputs": [],
      "stateMutability": "nonpayable",
      "type": "function"
    },
    {
      "inputs": [
        {
          "internalType": "address",
          "name": "from",
          "type": "address"
        },
        {
          "internalType": "address",
          "name": "to",
          "type": "address"
        },
        {
          "internalType": "uint256",
          "name": "tokenId",
          "type": "uint256"
        }
      ],
      "name": "safeTransferFrom",
      "outputs": [],
      "stateMutability": "nonpayable",
      "type": "function"
    },
    {
      "inputs": [
        {
          "internalType": "address",
          "name": "from",
          "type": "address"
        },
        {
          "internalType": "address",
          "name": "to",
          "type": "address"
        },
        {
          "internalType": "uint256",
          "name": "tokenId",
          "type": "uint256"
        },
        {
          "internalType": "bytes",
          "name": "data",
          "type": "bytes"
        }
      ],
      "name": "safeTransferFrom",
      "outputs": [],
      "stateMutability": "nonpayable",
      "type": "function"
    },
    {
      "inputs": [
        {
          "internalType": "address",
          "name": "operator",
          "type": "address"
        },
        {
          "internalType": "bool",
          "name": "approved",
          "type": "bool"
        }
      ],
      "name": "setApprovalForAll",
      "outputs": [],
      "stateMutability": "nonpayable",
      "type": "function"
    },
    {
      "inputs": [
        {
          "internalType": "string",
          "name": "uri",
          "type": "string"
        }
      ],
      "name": "setBaseURI",
      "outputs": [],
      "stateMutability": "nonpayable",
      "type": "function"
    },
    {
      "inputs": [
        {
          "internalType": "bytes4",
          "name": "interfaceId",
          "type": "bytes4"
        }
      ],
      "name": "supportsInterface",
      "outputs": [
        {
          "internalType": "bool",
          "name": "",
          "type": "bool"
        }
      ],
      "stateMutability": "view",
      "type": "function"
    },
    {
      "inputs": [],
      "name": "symbol",
      "outputs": [
        {
          "internalType": "string",
          "name": "",
          "type": "string"
        }
      ],
      "stateMutability": "view",
      "type": "function"
    },
    {
      "inputs": [
        {
          "internalType": "uint256",
          "name": "index",
          "type": "uint256"
        }
      ],
      "name": "tokenByIndex",
      "outputs": [
        {
          "internalType": "uint256",
          "name": "",
          "type": "uint256"
        }
      ],
      "stateMutability": "view",
      "type": "function"
    },
    {
      "inputs": [
        {
          "internalType": "address",
          "name": "owner",
          "type": "address"
        },
        {
          "internalType": "uint256",
          "name": "index",
          "type": "uint256"
        }
      ],
      "name": "tokenOfOwnerByIndex",
      "outputs": [
        {
          "internalType": "uint256",
          "name": "",
          "type": "uint256"
        }
      ],
      "stateMutability": "view",
      "type": "function"
    },
    {
      "inputs": [
        {
          "internalType": "uint256",
          "name": "tokenId",
          "type": "uint256"
        }
      ],
      "name": "tokenURI",
      "outputs": [
        {
          "internalType": "string",
          "name": "",
          "type": "string"
        }
      ],
      "stateMutability": "view",
      "type": "function"
    },
    {
      "inputs": [],
      "name": "totalSupply",
      "outputs": [
        {
          "internalType": "uint256",
          "name": "",
          "type": "uint256"
        }
      ],
      "stateMutability": "view",
      "type": "function"
    },
    {
      "inputs": [
        {
          "internalType": "address",
          "name": "from",
          "type": "address"
        },
        {
          "internalType": "address",
          "name": "to",
          "type": "address"
        },
        {
          "internalType": "uint256",
          "name": "tokenId",
          "type": "uint256"
        }
      ],
      "name": "transferFrom",
      "outputs": [],
      "stateMutability": "nonpayable",
      "type": "function"
    },
    {
      "inputs": [
        {
          "internalType": "address",
          "name": "newOwner",
          "type": "address"
        }
      ],
      "name": "transferOwnership",
      "outputs": [],
      "stateMutability": "nonpayable",
      "type": "function"
    },
    {
      "inputs": [],
      "name": "withdrawFunds",
      "outputs": [],
      "stateMutability": "nonpayable",
      "type": "function"
    }
  ],
  "bytecode": "0x608060405234801561001057600080fd5b5060405161369438038061369483398181016040528101906100329190610394565b336040518060400160405280600e81526020017f506573746f2050656e6775696e730000000000000000000000000000000000008152506040518060400160405280600481526020017f50454e470000000000000000000000000000000000000000000000000000000081525081600090816100ae91906105fe565b5080600190816100be91906105fe565b505050600073ffffffffffffffffffffffffffffffffffffffff168173ffffffffffffffffffffffffffffffffffffffff16036101335760006040517f1e4fbdf700000000000000000000000000000000000000000000000000000000815260040161012a9190610711565b60405180910390fd5b6101428161015960201b60201c565b5080600b908161015291906105fe565b505061072c565b6000600a60009054906101000a900473ffffffffffffffffffffffffffffffffffffffff16905081600a60006101000a81548173ffffffffffffffffffffffffffffffffffffffff021916908373ffffffffffffffffffffffffffffffffffffffff1602179055508173ffffffffffffffffffffffffffffffffffffffff168173ffffffffffffffffffffffffffffffffffffffff167f8be0079c531659141344cd1fd0a4f28419497f9722a3daafe3b4186f6b6457e060405160405180910390a35050565b6000604051905090565b600080fd5b600080fd5b600080fd5b600080fd5b6000601f19601f8301169050919050565b7f4e487b7100000000000000000000000000000000000000000000000000000000600052604160045260246000fd5b6102868261023d565b810181811067ffffffffffffffff821117156102a5576102a461024e565b5b80604052505050565b60006102b861021f565b90506102c4828261027d565b919050565b600067ffffffffffffffff8211156102e4576102e361024e565b5b6102ed8261023d565b9050602081019050919050565b60005b838110156103185780820151818401526020810190506102fd565b60008484015250505050565b6000610337610332846102c9565b6102ae565b90508281526020810184848401111561035357610352610238565b5b61035e8482856102fa565b509392505050565b600082601f83011261037b5761037a610233565b5b815161038b848260208601610324565b91505092915050565b6000602082840312156103aa576103a9610229565b5b600082015167ffffffffffffffff8111156103c8576103c761022e565b5b6103d484828501610366565b91505092915050565b600081519050919050565b7f4e487b7100000000000000000000000000000000000000000000000000000000600052602260045260246000fd5b6000600282049050600182168061042f57607f821691505b602082108103610442576104416103e8565b5b50919050565b60008190508160005260206000209050919050565b60006020601f8301049050919050565b600082821b905092915050565b6000600883026104aa7fffffffffffffffffffffffffffffffffffffffffffffffffffffffffffffffff8261046d565b6104b4868361046d565b95508019841693508086168417925050509392505050565b6000819050919050565b6000819050919050565b60006104fb6104f66104f1846104cc565b6104d6565b6104cc565b9050919050565b6000819050919050565b610515836104e0565b61052961052182610502565b84845461047a565b825550505050565b600090565b61053e610531565b61054981848461050c565b505050565b5b8181101561056d57610562600082610536565b60018101905061054f565b5050565b601f8211156105b25761058381610448565b61058c8461045d565b8101602085101561059b578190505b6105af6105a78561045d565b83018261054e565b50505b505050565b600082821c905092915050565b60006105d5600019846008026105b7565b1980831691505092915050565b60006105ee83836105c4565b9150826002028217905092915050565b610607826103dd565b67ffffffffffffffff8111156106205761061f61024e565b5b61062a8254610417565b610635828285610571565b600060209050601f8311600181146106685760008415610656578287015190505b61066085826105e2565b8655506106c8565b601f19841661067686610448565b60005b8281101561069e57848901518255600182019150602085019450602081019050610679565b868310156106bb57848901516106b7601f8916826105c4565b8355505b6001600288020188555050505b505050505050565b600073ffffffffffffffffffffffffffffffffffffffff82169050919050565b60006106fb826106d0565b9050919050565b61070b816106f0565b82525050565b60006020820190506107266000830184610702565b92915050565b612f598061073b6000396000f3fe60806040526004361061014b5760003560e01c80636352211e116100b6578063a22cb4651161006f578063a22cb46514610483578063b88d4fde146104ac578063c002d23d146104d5578063c87b56dd14610500578063e985e9c51461053d578063f2fde38b1461057a5761014b565b80636352211e1461038057806370a08231146103bd578063715018a6146103fa5780638da5cb5b14610411578063926427441461043c57806395d89b41146104585761014b565b806324600fc31161010857806324600fc3146102725780632f745c591461028957806332cb6b0c146102c657806342842e0e146102f15780634f6ccce71461031a57806355f804b3146103575761014b565b806301ffc9a71461015057806306fdde031461018d578063081812fc146101b8578063095ea7b3146101f557806318160ddd1461021e57806323b872dd14610249575b600080fd5b34801561015c57600080fd5b506101776004803603810190610172919061222c565b6105a3565b6040516101849190612274565b60405180910390f35b34801561019957600080fd5b506101a261061d565b6040516101af919061231f565b60405180910390f35b3480156101c457600080fd5b506101df60048036038101906101da9190612377565b6106af565b6040516101ec91906123e5565b60405180910390f35b34801561020157600080fd5b5061021c6004803603810190610217919061242c565b6106cb565b005b34801561022a57600080fd5b506102336106e1565b604051610240919061247b565b60405180910390f35b34801561025557600080fd5b50610270600480360381019061026b9190612496565b6106ee565b005b34801561027e57600080fd5b506102876107f0565b005b34801561029557600080fd5b506102b060048036038101906102ab919061242c565b610848565b6040516102bd919061247b565b60405180910390f35b3480156102d257600080fd5b506102db6108f1565b6040516102e8919061247b565b60405180910390f35b3480156102fd57600080fd5b5061031860048036038101906103139190612496565b6108f7565b005b34801561032657600080fd5b50610341600480360381019061033c9190612377565b610917565b60405161034e919061247b565b60405180910390f35b34801561036357600080fd5b5061037e6004803603810190610379919061261e565b61098d565b005b34801561038c57600080fd5b506103a760048036038101906103a29190612377565b6109a8565b6040516103b491906123e5565b60405180910390f35b3480156103c957600080fd5b506103e460048036038101906103df9190612667565b6109ba565b6040516103f1919061247b565b60405180910390f35b34801561040657600080fd5b5061040f610a74565b005b34801561041d57600080fd5b50610426610a88565b60405161043391906123e5565b60405180910390f35b61045660048036038101906104519190612377565b610ab2565b005b34801561046457600080fd5b5061046d610b91565b60405161047a919061231f565b60405180910390f35b34801561048f57600080fd5b506104aa60048036038101906104a591906126c0565b610c23565b005b3480156104b857600080fd5b506104d360048036038101906104ce91906127a1565b610c39565b005b3480156104e157600080fd5b506104ea610c5e565b6040516104f7919061247b565b60405180910390f35b34801561050c57600080fd5b5061052760048036038101906105229190612377565b610c69565b604051610534919061231f565b60405180910390f35b34801561054957600080fd5b50610564600480360381019061055f9190612824565b610cd2565b6040516105719190612274565b60405180910390f35b34801561058657600080fd5b506105a1600480360381019061059c9190612667565b610d66565b005b60007f780e9d63000000000000000000000000000000000000000000000000000000007bffffffffffffffffffffffffffffffffffffffffffffffffffffffff1916827bffffffffffffffffffffffffffffffffffffffffffffffffffffffff19161480610616575061061582610dec565b5b9050919050565b60606000805461062c90612893565b80601f016020809104026020016040519081016040528092919081815260200182805461065890612893565b80156106a55780601f1061067a576101008083540402835291602001916106a5565b820191906000526020600020905b81548152906001019060200180831161068857829003601f168201915b5050505050905090565b60006106ba82610ece565b506106c482610f56565b9050919050565b6106dd82826106d8610f93565b610f9b565b5050565b6000600880549050905090565b600073ffffffffffffffffffffffffffffffffffffffff168273ffffffffffffffffffffffffffffffffffffffff16036107605760006040517f64a0ae9200000000000000000000000000000000000000000000000000000000815260040161075791906123e5565b60405180910390fd5b6000610774838361076f610f93565b610fad565b90508373ffffffffffffffffffffffffffffffffffffffff168173ffffffffffffffffffffffffffffffffffffffff16146107ea578382826040517f64283d7b0000000000000000000000000000000000000000000000000000000081526004016107e1939291906128c4565b60405180910390fd5b50505050565b6107f86110ca565b610800610a88565b73ffffffffffffffffffffffffffffffffffffffff166108fc479081150290604051600060405180830381858888f19350505050158015610845573d6000803e3d6000fd5b50565b6000610853836109ba565b82106108985782826040517fa57d13dc00000000000000000000000000000000000000000000000000000000815260040161088f9291906128fb565b60405180910390fd5b600660008473ffffffffffffffffffffffffffffffffffffffff1673ffffffffffffffffffffffffffffffffffffffff168152602001908152602001600020600083815260200190815260200160002054905092915050565b6108ae81565b61091283838360405180602001604052806000815250610c39565b505050565b60006109216106e1565b8210610967576000826040517fa57d13dc00000000000000000000000000000000000000000000000000000000815260040161095e9291906128fb565b60405180910390fd5b6008828154811061097b5761097a612924565b5b90600052602060002001549050919050565b6109956110ca565b80600b90816109a49190612aff565b5050565b60006109b382610ece565b9050919050565b60008073ffffffffffffffffffffffffffffffffffffffff168273ffffffffffffffffffffffffffffffffffffffff1603610a2d5760006040517f89c62b64000000000000000000000000000000000000000000000000000000008152600401610a2491906123e5565b60405180910390fd5b600360008373ffffffffffffffffffffffffffffffffffffffff1673ffffffffffffffffffffffffffffffffffffffff168152602001908152602001600020549050919050565b610a7c6110ca565b610a866000611151565b565b6000600a60009054906101000a900473ffffffffffffffffffffffffffffffffffffffff16905090565b6108ae81610abe6106e1565b610ac89190612c00565b1115610b09576040517f08c379a0000000000000000000000000000000000000000000000000000000008152600401610b0090612c80565b60405180910390fd5b8066027ca57357c000610b1c9190612ca0565b341015610b5e576040517f08c379a0000000000000000000000000000000000000000000000000000000008152600401610b5590612d2e565b60405180910390fd5b60005b81811015610b8d576000610b736106e1565b9050610b7f3382611217565b508080600101915050610b61565b5050565b606060018054610ba090612893565b80601f0160208091040260200160405190810160405280929190818152602001828054610bcc90612893565b8015610c195780601f10610bee57610100808354040283529160200191610c19565b820191906000526020600020905b815481529060010190602001808311610bfc57829003601f168201915b5050505050905090565b610c35610c2e610f93565b8383611235565b5050565b610c448484846106ee565b610c58610c4f610f93565b858585856113a4565b50505050565b66027ca57357c00081565b6060610c7482610ece565b506000610c7f611555565b90506000815111610c9f5760405180602001604052806000815250610cca565b80610ca9846115e7565b604051602001610cba929190612d8a565b6040516020818303038152906040525b915050919050565b6000600560008473ffffffffffffffffffffffffffffffffffffffff1673ffffffffffffffffffffffffffffffffffffffff16815260200190815260200160002060008373ffffffffffffffffffffffffffffffffffffffff1673ffffffffffffffffffffffffffffffffffffffff16815260200190815260200160002060009054906101000a900460ff16905092915050565b610d6e6110ca565b600073ffffffffffffffffffffffffffffffffffffffff168173ffffffffffffffffffffffffffffffffffffffff1603610de05760006040517f1e4fbdf7000000000000000000000000000000000000000000000000000000008152600401610dd791906123e5565b60405180910390fd5b610de981611151565b50565b60007f80ac58cd000000000000000000000000000000000000000000000000000000007bffffffffffffffffffffffffffffffffffffffffffffffffffffffff1916827bffffffffffffffffffffffffffffffffffffffffffffffffffffffff19161480610eb757507f5b5e139f000000000000000000000000000000000000000000000000000000007bffffffffffffffffffffffffffffffffffffffffffffffffffffffff1916827bffffffffffffffffffffffffffffffffffffffffffffffffffffffff1916145b80610ec75750610ec6826116b5565b5b9050919050565b600080610eda8361171f565b9050600073ffffffffffffffffffffffffffffffffffffffff168173ffffffffffffffffffffffffffffffffffffffff1603610f4d57826040517f7e273289000000000000000000000000000000000000000000000000000000008152600401610f44919061247b565b60405180910390fd5b80915050919050565b60006004600083815260200190815260200160002060009054906101000a900473ffffffffffffffffffffffffffffffffffffffff169050919050565b600033905090565b610fa8838383600161175c565b505050565b600080610fbb858585611921565b9050600073ffffffffffffffffffffffffffffffffffffffff168173ffffffffffffffffffffffffffffffffffffffff1603610fff57610ffa84611b3b565b61103e565b8473ffffffffffffffffffffffffffffffffffffffff168173ffffffffffffffffffffffffffffffffffffffff161461103d5761103c8185611b84565b5b5b600073ffffffffffffffffffffffffffffffffffffffff168573ffffffffffffffffffffffffffffffffffffffff16036110805761107b84611c6f565b6110bf565b8473ffffffffffffffffffffffffffffffffffffffff168173ffffffffffffffffffffffffffffffffffffffff16146110be576110bd8585611d40565b5b5b809150509392505050565b6110d2610f93565b73ffffffffffffffffffffffffffffffffffffffff166110f0610a88565b73ffffffffffffffffffffffffffffffffffffffff161461114f57611113610f93565b6040517f118cdaa700000000000000000000000000000000000000000000000000000000815260040161114691906123e5565b60405180910390fd5b565b6000600a60009054906101000a900473ffffffffffffffffffffffffffffffffffffffff16905081600a60006101000a81548173ffffffffffffffffffffffffffffffffffffffff021916908373ffffffffffffffffffffffffffffffffffffffff1602179055508173ffffffffffffffffffffffffffffffffffffffff168173ffffffffffffffffffffffffffffffffffffffff167f8be0079c531659141344cd1fd0a4f28419497f9722a3daafe3b4186f6b6457e060405160405180910390a35050565b611231828260405180602001604052806000815250611dcb565b5050565b600073ffffffffffffffffffffffffffffffffffffffff168273ffffffffffffffffffffffffffffffffffffffff16036112a657816040517f5b08ba1800000000000000000000000000000000000000000000000000000000815260040161129d91906123e5565b60405180910390fd5b80600560008573ffffffffffffffffffffffffffffffffffffffff1673ffffffffffffffffffffffffffffffffffffffff16815260200190815260200160002060008473ffffffffffffffffffffffffffffffffffffffff1673ffffffffffffffffffffffffffffffffffffffff16815260200190815260200160002060006101000a81548160ff0219169083151502179055508173ffffffffffffffffffffffffffffffffffffffff168373ffffffffffffffffffffffffffffffffffffffff167f17307eab39ab6107e8899845ad3d59bd9653f200f220920489ca2b5937696c31836040516113979190612274565b60405180910390a3505050565b60008373ffffffffffffffffffffffffffffffffffffffff163b111561154e578273ffffffffffffffffffffffffffffffffffffffff1663150b7a02868685856040518563ffffffff1660e01b81526004016114039493929190612e03565b6020604051808303816000875af192505050801561143f57506040513d601f19601f8201168201806040525081019061143c9190612e64565b60015b6114c3573d806000811461146f576040519150601f19603f3d011682016040523d82523d6000602084013e611474565b606091505b5060008151036114bb57836040517f64a0ae920000000000000000000000000000000000000000000000000000000081526004016114b291906123e5565b60405180910390fd5b805181602001fd5b63150b7a0260e01b7bffffffffffffffffffffffffffffffffffffffffffffffffffffffff1916817bffffffffffffffffffffffffffffffffffffffffffffffffffffffff19161461154c57836040517f64a0ae9200000000000000000000000000000000000000000000000000000000815260040161154391906123e5565b60405180910390fd5b505b5050505050565b6060600b805461156490612893565b80601f016020809104026020016040519081016040528092919081815260200182805461159090612893565b80156115dd5780601f106115b2576101008083540402835291602001916115dd565b820191906000526020600020905b8154815290600101906020018083116115c057829003601f168201915b5050505050905090565b6060600060016115f684611def565b01905060008167ffffffffffffffff811115611615576116146124f3565b5b6040519080825280601f01601f1916602001820160405280156116475781602001600182028036833780820191505090505b509050600082602001820190505b6001156116aa578080600190039150507f3031323334353637383961626364656600000000000000000000000000000000600a86061a8153600a858161169e5761169d612e91565b5b04945060008503611655575b819350505050919050565b60007f01ffc9a7000000000000000000000000000000000000000000000000000000007bffffffffffffffffffffffffffffffffffffffffffffffffffffffff1916827bffffffffffffffffffffffffffffffffffffffffffffffffffffffff1916149050919050565b60006002600083815260200190815260200160002060009054906101000a900473ffffffffffffffffffffffffffffffffffffffff169050919050565b80806117955750600073ffffffffffffffffffffffffffffffffffffffff168273ffffffffffffffffffffffffffffffffffffffff1614155b156118c95760006117a584610ece565b9050600073ffffffffffffffffffffffffffffffffffffffff168373ffffffffffffffffffffffffffffffffffffffff161415801561181057508273ffffffffffffffffffffffffffffffffffffffff168173ffffffffffffffffffffffffffffffffffffffff1614155b801561182357506118218184610cd2565b155b1561186557826040517fa9fbf51f00000000000000000000000000000000000000000000000000000000815260040161185c91906123e5565b60405180910390fd5b81156118c757838573ffffffffffffffffffffffffffffffffffffffff168273ffffffffffffffffffffffffffffffffffffffff167f8c5be1e5ebec7d5bd14f71427d1e84f3dd0314c0f7b2291e5b200ac8c7c3b92560405160405180910390a45b505b836004600085815260200190815260200160002060006101000a81548173ffffffffffffffffffffffffffffffffffffffff021916908373ffffffffffffffffffffffffffffffffffffffff16021790555050505050565b60008061192d8461171f565b9050600073ffffffffffffffffffffffffffffffffffffffff168373ffffffffffffffffffffffffffffffffffffffff161461196f5761196e818486611f42565b5b600073ffffffffffffffffffffffffffffffffffffffff168173ffffffffffffffffffffffffffffffffffffffff1614611a00576119b160008560008061175c565b6001600360008373ffffffffffffffffffffffffffffffffffffffff1673ffffffffffffffffffffffffffffffffffffffff168152602001908152602001600020600082825403925050819055505b600073ffffffffffffffffffffffffffffffffffffffff168573ffffffffffffffffffffffffffffffffffffffff1614611a83576001600360008773ffffffffffffffffffffffffffffffffffffffff1673ffffffffffffffffffffffffffffffffffffffff168152602001908152602001600020600082825401925050819055505b846002600086815260200190815260200160002060006101000a81548173ffffffffffffffffffffffffffffffffffffffff021916908373ffffffffffffffffffffffffffffffffffffffff160217905550838573ffffffffffffffffffffffffffffffffffffffff168273ffffffffffffffffffffffffffffffffffffffff167fddf252ad1be2c89b69c2b068fc378daa952ba7f163c4a11628f55a4df523b3ef60405160405180910390a4809150509392505050565b6008805490506009600083815260200190815260200160002081905550600881908060018154018082558091505060019003906000526020600020016000909190919091505550565b6000611b8f836109ba565b90506000600760008481526020019081526020016000205490506000600660008673ffffffffffffffffffffffffffffffffffffffff1673ffffffffffffffffffffffffffffffffffffffff1681526020019081526020016000209050828214611c3b5760008160008581526020019081526020016000205490508082600085815260200190815260200160002081905550826007600083815260200190815260200160002081905550505b6007600085815260200190815260200160002060009055806000848152602001908152602001600020600090555050505050565b60006001600880549050611c839190612ec0565b9050600060096000848152602001908152602001600020549050600060088381548110611cb357611cb2612924565b5b906000526020600020015490508060088381548110611cd557611cd4612924565b5b906000526020600020018190555081600960008381526020019081526020016000208190555060096000858152602001908152602001600020600090556008805480611d2457611d23612ef4565b5b6001900381819060005260206000200160009055905550505050565b60006001611d4d846109ba565b611d579190612ec0565b905081600660008573ffffffffffffffffffffffffffffffffffffffff1673ffffffffffffffffffffffffffffffffffffffff168152602001908152602001600020600083815260200190815260200160002081905550806007600084815260200190815260200160002081905550505050565b611dd58383612006565b611dea611de0610f93565b60008585856113a4565b505050565b600080600090507a184f03e93ff9f4daa797ed6e38ed64bf6a1f0100000000000000008310611e4d577a184f03e93ff9f4daa797ed6e38ed64bf6a1f0100000000000000008381611e4357611e42612e91565b5b0492506040810190505b6d04ee2d6d415b85acef81000000008310611e8a576d04ee2d6d415b85acef81000000008381611e8057611e7f612e91565b5b0492506020810190505b662386f26fc100008310611eb957662386f26fc100008381611eaf57611eae612e91565b5b0492506010810190505b6305f5e1008310611ee2576305f5e1008381611ed857611ed7612e91565b5b0492506008810190505b6127108310611f07576127108381611efd57611efc612e91565b5b0492506004810190505b60648310611f2a5760648381611f2057611f1f612e91565b5b0492506002810190505b600a8310611f39576001810190505b80915050919050565b611f4d8383836120ff565b61200157600073ffffffffffffffffffffffffffffffffffffffff168373ffffffffffffffffffffffffffffffffffffffff1603611fc257806040517f7e273289000000000000000000000000000000000000000000000000000000008152600401611fb9919061247b565b60405180910390fd5b81816040517f177e802f000000000000000000000000000000000000000000000000000000008152600401611ff89291906128fb565b60405180910390fd5b505050565b600073ffffffffffffffffffffffffffffffffffffffff168273ffffffffffffffffffffffffffffffffffffffff16036120785760006040517f64a0ae9200000000000000000000000000000000000000000000000000000000815260040161206f91906123e5565b60405180910390fd5b600061208683836000610fad565b9050600073ffffffffffffffffffffffffffffffffffffffff168173ffffffffffffffffffffffffffffffffffffffff16146120fa5760006040517f73c6ac6e0000000000000000000000000000000000000000000000000000000081526004016120f191906123e5565b60405180910390fd5b505050565b60008073ffffffffffffffffffffffffffffffffffffffff168373ffffffffffffffffffffffffffffffffffffffff16141580156121b757508273ffffffffffffffffffffffffffffffffffffffff168473ffffffffffffffffffffffffffffffffffffffff16148061217857506121778484610cd2565b5b806121b657508273ffffffffffffffffffffffffffffffffffffffff1661219e83610f56565b73ffffffffffffffffffffffffffffffffffffffff16145b5b90509392505050565b6000604051905090565b600080fd5b600080fd5b60007fffffffff0000000000000000000000000000000000000000000000000000000082169050919050565b612209816121d4565b811461221457600080fd5b50565b60008135905061222681612200565b92915050565b600060208284031215612242576122416121ca565b5b600061225084828501612217565b91505092915050565b60008115159050919050565b61226e81612259565b82525050565b60006020820190506122896000830184612265565b92915050565b600081519050919050565b600082825260208201905092915050565b60005b838110156122c95780820151818401526020810190506122ae565b60008484015250505050565b6000601f19601f8301169050919050565b60006122f18261228f565b6122fb818561229a565b935061230b8185602086016122ab565b612314816122d5565b840191505092915050565b6000602082019050818103600083015261233981846122e6565b905092915050565b6000819050919050565b61235481612341565b811461235f57600080fd5b50565b6000813590506123718161234b565b92915050565b60006020828403121561238d5761238c6121ca565b5b600061239b84828501612362565b91505092915050565b600073ffffffffffffffffffffffffffffffffffffffff82169050919050565b60006123cf826123a4565b9050919050565b6123df816123c4565b82525050565b60006020820190506123fa60008301846123d6565b92915050565b612409816123c4565b811461241457600080fd5b50565b60008135905061242681612400565b92915050565b60008060408385031215612443576124426121ca565b5b600061245185828601612417565b925050602061246285828601612362565b9150509250929050565b61247581612341565b82525050565b6000602082019050612490600083018461246c565b92915050565b6000806000606084860312156124af576124ae6121ca565b5b60006124bd86828701612417565b93505060206124ce86828701612417565b92505060406124df86828701612362565b9150509250925092565b600080fd5b600080fd5b7f4e487b7100000000000000000000000000000000000000000000000000000000600052604160045260246000fd5b61252b826122d5565b810181811067ffffffffffffffff8211171561254a576125496124f3565b5b80604052505050565b600061255d6121c0565b90506125698282612522565b919050565b600067ffffffffffffffff821115612589576125886124f3565b5b612592826122d5565b9050602081019050919050565b82818337600083830152505050565b60006125c16125bc8461256e565b612553565b9050828152602081018484840111156125dd576125dc6124ee565b5b6125e884828561259f565b509392505050565b600082601f830112612605576126046124e9565b5b81356126158482602086016125ae565b91505092915050565b600060208284031215612634576126336121ca565b5b600082013567ffffffffffffffff811115612652576126516121cf565b5b61265e848285016125f0565b91505092915050565b60006020828403121561267d5761267c6121ca565b5b600061268b84828501612417565b91505092915050565b61269d81612259565b81146126a857600080fd5b50565b6000813590506126ba81612694565b92915050565b600080604083850312156126d7576126d66121ca565b5b60006126e585828601612417565b92505060206126f6858286016126ab565b9150509250929050565b600067ffffffffffffffff82111561271b5761271a6124f3565b5b612724826122d5565b9050602081019050919050565b600061274461273f84612700565b612553565b9050828152602081018484840111156127605761275f6124ee565b5b61276b84828561259f565b509392505050565b600082601f830112612788576127876124e9565b5b8135612798848260208601612731565b91505092915050565b600080600080608085870312156127bb576127ba6121ca565b5b60006127c987828801612417565b94505060206127da87828801612417565b93505060406127eb87828801612362565b925050606085013567ffffffffffffffff81111561280c5761280b6121cf565b5b61281887828801612773565b91505092959194509250565b6000806040838503121561283b5761283a6121ca565b5b600061284985828601612417565b925050602061285a85828601612417565b9150509250929050565b7f4e487b7100000000000000000000000000000000000000000000000000000000600052602260045260246000fd5b600060028204905060018216806128ab57607f821691505b6020821081036128be576128bd612864565b5b50919050565b60006060820190506128d960008301866123d6565b6128e6602083018561246c565b6128f360408301846123d6565b949350505050565b600060408201905061291060008301856123d6565b61291d602083018461246c565b9392505050565b7f4e487b7100000000000000000000000000000000000000000000000000000000600052603260045260246000fd5b60008190508160005260206000209050919050565b60006020601f8301049050919050565b600082821b905092915050565b6000600883026129b57fffffffffffffffffffffffffffffffffffffffffffffffffffffffffffffffff82612978565b6129bf8683612978565b95508019841693508086168417925050509392505050565b6000819050919050565b60006129fc6129f76129f284612341565b6129d7565b612341565b9050919050565b6000819050919050565b612a16836129e1565b612a2a612a2282612a03565b848454612985565b825550505050565b600090565b612a3f612a32565b612a4a818484612a0d565b505050565b5b81811015612a6e57612a63600082612a37565b600181019050612a50565b5050565b601f821115612ab357612a8481612953565b612a8d84612968565b81016020851015612a9c578190505b612ab0612aa885612968565b830182612a4f565b50505b505050565b600082821c905092915050565b6000612ad660001984600802612ab8565b1980831691505092915050565b6000612aef8383612ac5565b9150826002028217905092915050565b612b088261228f565b67ffffffffffffffff811115612b2157612b206124f3565b5b612b2b8254612893565b612b36828285612a72565b600060209050601f831160018114612b695760008415612b57578287015190505b612b618582612ae3565b865550612bc9565b601f198416612b7786612953565b60005b82811015612b9f57848901518255600182019150602085019450602081019050612b7a565b86831015612bbc5784890151612bb8601f891682612ac5565b8355505b6001600288020188555050505b505050505050565b7f4e487b7100000000000000000000000000000000000000000000000000000000600052601160045260246000fd5b6000612c0b82612341565b9150612c1683612341565b9250828201905080821115612c2e57612c2d612bd1565b5b92915050565b7f4d617820737570706c7920657863656564656400000000000000000000000000600082015250565b6000612c6a60138361229a565b9150612c7582612c34565b602082019050919050565b60006020820190508181036000830152612c9981612c5d565b9050919050565b6000612cab82612341565b9150612cb683612341565b9250828202612cc481612341565b91508282048414831517612cdb57612cda612bd1565b5b5092915050565b7f496e73756666696369656e742045544800000000000000000000000000000000600082015250565b6000612d1860108361229a565b9150612d2382612ce2565b602082019050919050565b60006020820190508181036000830152612d4781612d0b565b9050919050565b600081905092915050565b6000612d648261228f565b612d6e8185612d4e565b9350612d7e8185602086016122ab565b80840191505092915050565b6000612d968285612d59565b9150612da28284612d59565b91508190509392505050565b600081519050919050565b600082825260208201905092915050565b6000612dd582612dae565b612ddf8185612db9565b9350612def8185602086016122ab565b612df8816122d5565b840191505092915050565b6000608082019050612e1860008301876123d6565b612e2560208301866123d6565b612e32604083018561246c565b8181036060830152612e448184612dca565b905095945050505050565b600081519050612e5e81612200565b92915050565b600060208284031215612e7a57612e796121ca565b5b6000612e8884828501612e4f565b91505092915050565b7f4e487b7100000000000000000000000000000000000000000000000000000000600052601260045260246000fd5b6000612ecb82612341565b9150612ed683612341565b9250828203905081811115612eee57612eed612bd1565b5b92915050565b7f4e487b7100000000000000000000000000000000000000000000000000000000600052603160045260246000fdfea26469706673582212207276f66803c5b5829f56d34c23e08c6fa1b753154bf7bde17e39fa754b3c106a64736f6c634300081b0033",
  "linkReferences": {},
  "deployedLinkReferences": {}
}